{
  "_format": "hh-sol-artifact-1",
  "contractName": "Messenger",
  "sourceName": "contracts/Messenger.sol",
  "abi": [
    {
      "inputs": [],
      "stateMutability": "payable",
      "type": "constructor"
    },
    {
      "anonymous": false,
      "inputs": [
        {
          "indexed": true,
          "internalType": "address",
          "name": "from",
          "type": "address"
        },
        {
          "indexed": false,
          "internalType": "uint256",
          "name": "timestamp",
          "type": "uint256"
        },
        {
          "indexed": false,
          "internalType": "string",
          "name": "message",
          "type": "string"
        }
      ],
      "name": "NewMessage",
      "type": "event"
    },
    {
      "inputs": [],
      "name": "getAllMessages",
      "outputs": [
        {
          "components": [
            {
              "internalType": "address",
              "name": "from",
              "type": "address"
            },
            {
              "internalType": "string",
              "name": "message",
              "type": "string"
            },
            {
              "internalType": "uint256",
              "name": "timestamp",
              "type": "uint256"
            }
          ],
          "internalType": "struct Messenger.Message[]",
          "name": "",
          "type": "tuple[]"
        }
      ],
      "stateMutability": "view",
      "type": "function"
    },
    {
      "inputs": [],
      "name": "getTotalNumberOfMessages",
      "outputs": [
        {
          "internalType": "uint256",
          "name": "",
          "type": "uint256"
        }
      ],
      "stateMutability": "view",
      "type": "function"
    },
    {
      "inputs": [
        {
          "internalType": "address",
          "name": "",
          "type": "address"
        }
      ],
      "name": "lastMessageddAt",
      "outputs": [
        {
          "internalType": "uint256",
          "name": "",
          "type": "uint256"
        }
      ],
      "stateMutability": "view",
      "type": "function"
    },
    {
      "inputs": [
        {
          "internalType": "string",
          "name": "_message",
          "type": "string"
        }
      ],
      "name": "sendMessage",
      "outputs": [],
      "stateMutability": "nonpayable",
      "type": "function"
    }
  ],
  "bytecode": "0x60806040526200004f6040518060400160405280601381526020017f50617961626c6520636f6e7374727563746f72000000000000000000000000008152506200007760201b620006881760201c565b606444426200005f9190620001c4565b6200006b919062000261565b60018190555062000308565b62000117816040516024016200008e919062000184565b6040516020818303038152906040527f41304fac000000000000000000000000000000000000000000000000000000007bffffffffffffffffffffffffffffffffffffffffffffffffffffffff19166020820180517bffffffffffffffffffffffffffffffffffffffffffffffffffffffff83818316178352505050506200011a60201b60201c565b50565b60008151905060006a636f6e736f6c652e6c6f679050602083016000808483855afa5050505050565b60006200015082620001a8565b6200015c8185620001b3565b93506200016e8185602086016200022b565b6200017981620002f7565b840191505092915050565b60006020820190508181036000830152620001a0818462000143565b905092915050565b600081519050919050565b600082825260208201905092915050565b6000620001d18262000221565b9150620001de8362000221565b9250827fffffffffffffffffffffffffffffffffffffffffffffffffffffffffffffffff0382111562000216576200021562000299565b5b828201905092915050565b6000819050919050565b60005b838110156200024b5780820151818401526020810190506200022e565b838111156200025b576000848401525b50505050565b60006200026e8262000221565b91506200027b8362000221565b9250826200028e576200028d620002c8565b5b828206905092915050565b7f4e487b7100000000000000000000000000000000000000000000000000000000600052601160045260246000fd5b7f4e487b7100000000000000000000000000000000000000000000000000000000600052601260045260246000fd5b6000601f19601f8301169050919050565b6112a080620003186000396000f3fe608060405234801561001057600080fd5b506004361061004c5760003560e01c80633ad01ca914610051578063469c81101461008157806353f5e3801461009d578063dac00bf9146100bb575b600080fd5b61006b60048036038101906100669190610a41565b6100d9565b6040516100789190610e1c565b60405180910390f35b61009b60048036038101906100969190610a6a565b6100f1565b005b6100a56104ec565b6040516100b29190610cd3565b60405180910390f35b6100c361063d565b6040516100d09190610e1c565b60405180910390f35b60036020528060005260406000206000915090505481565b42601e600360003373ffffffffffffffffffffffffffffffffffffffff1673ffffffffffffffffffffffffffffffffffffffff1681526020019081526020016000205461013e9190610f2e565b1061017e576040517f08c379a000000000000000000000000000000000000000000000000000000000815260040161017590610dfc565b60405180910390fd5b42600360003373ffffffffffffffffffffffffffffffffffffffff1673ffffffffffffffffffffffffffffffffffffffff1681526020019081526020016000208190555060016000808282546101d49190610f2e565b9250508190555061021b6040518060400160405280601a81526020017f73656e646572202d2025732c206d657373616765202d202025730000000000008152503383610721565b600260405180606001604052803373ffffffffffffffffffffffffffffffffffffffff16815260200183815260200142815250908060018154018082558091505060019003906000526020600020906003020160009091909190915060008201518160000160006101000a81548173ffffffffffffffffffffffffffffffffffffffff021916908373ffffffffffffffffffffffffffffffffffffffff16021790555060208201518160010190805190602001906102da929190610921565b50604082015181600201555050606460015442446102f89190610f2e565b6103029190610f2e565b61030c9190611065565b6001819055506103536040518060400160405280601681526020017f52616e646f6d20232067656e6572617465643a202564000000000000000000008152506001546107c0565b6032600154116104995761039c6040518060400160405280600781526020017f257320776f6e21000000000000000000000000000000000000000000000000008152503361085c565b6000655af3107a40009050478111156103ea576040517f08c379a00000000000000000000000000000000000000000000000000000000081526004016103e190610dbc565b60405180910390fd5b60003373ffffffffffffffffffffffffffffffffffffffff168260405161041090610cbe565b60006040518083038185875af1925050503d806000811461044d576040519150601f19603f3d011682016040523d82523d6000602084013e610452565b606091505b5050905080610496576040517f08c379a000000000000000000000000000000000000000000000000000000000815260040161048d90610ddc565b60405180910390fd5b50505b3373ffffffffffffffffffffffffffffffffffffffff167f0ff94fec3112de81726d79117e091c7c9d47da8a38c73e8cec7ee350a61898a642836040516104e1929190610e37565b60405180910390a250565b60606002805480602002602001604051908101604052809291908181526020016000905b8282101561063457838290600052602060002090600302016040518060600160405290816000820160009054906101000a900473ffffffffffffffffffffffffffffffffffffffff1673ffffffffffffffffffffffffffffffffffffffff1673ffffffffffffffffffffffffffffffffffffffff16815260200160018201805461059990611002565b80601f01602080910402602001604051908101604052809291908181526020018280546105c590611002565b80156106125780601f106105e757610100808354040283529160200191610612565b820191906000526020600020905b8154815290600101906020018083116105f557829003601f168201915b5050505050815260200160028201548152505081526020019060010190610510565b50505050905090565b60006106806040518060400160405280601a81526020017f5765206861766520256420746f74616c206d65737361676573210000000000008152506000546107c0565b600054905090565b61071e8160405160240161069c9190610cf5565b6040516020818303038152906040527f41304fac000000000000000000000000000000000000000000000000000000007bffffffffffffffffffffffffffffffffffffffffffffffffffffffff19166020820180517bffffffffffffffffffffffffffffffffffffffffffffffffffffffff83818316178352505050506108f8565b50565b6107bb83838360405160240161073993929190610d47565b6040516020818303038152906040527fe0e9ad4f000000000000000000000000000000000000000000000000000000007bffffffffffffffffffffffffffffffffffffffffffffffffffffffff19166020820180517bffffffffffffffffffffffffffffffffffffffffffffffffffffffff83818316178352505050506108f8565b505050565b61085882826040516024016107d6929190610d8c565b6040516020818303038152906040527f9710a9d0000000000000000000000000000000000000000000000000000000007bffffffffffffffffffffffffffffffffffffffffffffffffffffffff19166020820180517bffffffffffffffffffffffffffffffffffffffffffffffffffffffff83818316178352505050506108f8565b5050565b6108f48282604051602401610872929190610d17565b6040516020818303038152906040527f319af333000000000000000000000000000000000000000000000000000000007bffffffffffffffffffffffffffffffffffffffffffffffffffffffff19166020820180517bffffffffffffffffffffffffffffffffffffffffffffffffffffffff83818316178352505050506108f8565b5050565b60008151905060006a636f6e736f6c652e6c6f679050602083016000808483855afa5050505050565b82805461092d90611002565b90600052602060002090601f01602090048101928261094f5760008555610996565b82601f1061096857805160ff1916838001178555610996565b82800160010185558215610996579182015b8281111561099557825182559160200191906001019061097a565b5b5090506109a391906109a7565b5090565b5b808211156109c05760008160009055506001016109a8565b5090565b60006109d76109d284610e8c565b610e67565b9050828152602081018484840111156109ef57600080fd5b6109fa848285610fc0565b509392505050565b600081359050610a1181611253565b92915050565b600082601f830112610a2857600080fd5b8135610a388482602086016109c4565b91505092915050565b600060208284031215610a5357600080fd5b6000610a6184828501610a02565b91505092915050565b600060208284031215610a7c57600080fd5b600082013567ffffffffffffffff811115610a9657600080fd5b610aa284828501610a17565b91505092915050565b6000610ab78383610c50565b905092915050565b610ac881610f84565b82525050565b610ad781610f84565b82525050565b6000610ae882610ecd565b610af28185610ef0565b935083602082028501610b0485610ebd565b8060005b85811015610b405784840389528151610b218582610aab565b9450610b2c83610ee3565b925060208a01995050600181019050610b08565b50829750879550505050505092915050565b6000610b5d82610ed8565b610b678185610f0c565b9350610b77818560208601610fcf565b610b8081611152565b840191505092915050565b6000610b9682610ed8565b610ba08185610f1d565b9350610bb0818560208601610fcf565b610bb981611152565b840191505092915050565b6000610bd1603483610f1d565b9150610bdc82611163565b604082019050919050565b6000610bf4602783610f1d565b9150610bff826111b2565b604082019050919050565b6000610c17600083610f01565b9150610c2282611201565b600082019050919050565b6000610c3a602e83610f1d565b9150610c4582611204565b604082019050919050565b6000606083016000830151610c686000860182610abf565b5060208301518482036020860152610c808282610b52565b9150506040830151610c956040860182610ca0565b508091505092915050565b610ca981610fb6565b82525050565b610cb881610fb6565b82525050565b6000610cc982610c0a565b9150819050919050565b60006020820190508181036000830152610ced8184610add565b905092915050565b60006020820190508181036000830152610d0f8184610b8b565b905092915050565b60006040820190508181036000830152610d318185610b8b565b9050610d406020830184610ace565b9392505050565b60006060820190508181036000830152610d618186610b8b565b9050610d706020830185610ace565b8181036040830152610d828184610b8b565b9050949350505050565b60006040820190508181036000830152610da68185610b8b565b9050610db56020830184610caf565b9392505050565b60006020820190508181036000830152610dd581610bc4565b9050919050565b60006020820190508181036000830152610df581610be7565b9050919050565b60006020820190508181036000830152610e1581610c2d565b9050919050565b6000602082019050610e316000830184610caf565b92915050565b6000604082019050610e4c6000830185610caf565b8181036020830152610e5e8184610b8b565b90509392505050565b6000610e71610e82565b9050610e7d8282611034565b919050565b6000604051905090565b600067ffffffffffffffff821115610ea757610ea6611123565b5b610eb082611152565b9050602081019050919050565b6000819050602082019050919050565b600081519050919050565b600081519050919050565b6000602082019050919050565b600082825260208201905092915050565b600081905092915050565b600082825260208201905092915050565b600082825260208201905092915050565b6000610f3982610fb6565b9150610f4483610fb6565b9250827fffffffffffffffffffffffffffffffffffffffffffffffffffffffffffffffff03821115610f7957610f78611096565b5b828201905092915050565b6000610f8f82610f96565b9050919050565b600073ffffffffffffffffffffffffffffffffffffffff82169050919050565b6000819050919050565b82818337600083830152505050565b60005b83811015610fed578082015181840152602081019050610fd2565b83811115610ffc576000848401525b50505050565b6000600282049050600182168061101a57607f821691505b6020821081141561102e5761102d6110f4565b5b50919050565b61103d82611152565b810181811067ffffffffffffffff8211171561105c5761105b611123565b5b80604052505050565b600061107082610fb6565b915061107b83610fb6565b92508261108b5761108a6110c5565b5b828206905092915050565b7f4e487b7100000000000000000000000000000000000000000000000000000000600052601160045260246000fd5b7f4e487b7100000000000000000000000000000000000000000000000000000000600052601260045260246000fd5b7f4e487b7100000000000000000000000000000000000000000000000000000000600052602260045260246000fd5b7f4e487b7100000000000000000000000000000000000000000000000000000000600052604160045260246000fd5b6000601f19601f8301169050919050565b7f547279696e6720746f207769746864726177206d6f7265206d6f6e657920746860008201527f616e2074686520636f6e7472616374206861732e000000000000000000000000602082015250565b7f4661696c656420746f207769746864726177206d6f6e65792066726f6d20636f60008201527f6e74726163742e00000000000000000000000000000000000000000000000000602082015250565b50565b7f57616974203330207365636f6e6473206265666f72652073656e64696e67206160008201527f6e6f74686572206d657373616765000000000000000000000000000000000000602082015250565b61125c81610f84565b811461126757600080fd5b5056fea2646970667358221220792493c0e765c05c5c950ecb65d34fdb0a8ba446b8dbb725b20f72448e37007b64736f6c63430008040033",
  "linkReferences": {},
  "deployedLinkReferences": {}
}